{
  "transactions": [
    {
      "hash": "0xa303b768ddf4093122f854655a04f54541d9f54bbe375453d40ae37208169ef3",
      "transactionType": "CALL",
      "contractName": null,
      "contractAddress": "0x3e7cafacb09814d603338c1286ede0db8896b750",
      "function": "register(address,bytes32,uint8)",
      "arguments": [
        "0x474Bf58A182cBf6134459E635B914C6350c71a68",
        "0xe200e502afcbbbda1d0ed85ea87fee114ab47ecd5f208563db7da403fda07765",
        "0"
      ],
      "transaction": {
        "from": "0x2daf660754b1102d90867f15ef9761997f56839c",
        "to": "0x3e7cafacb09814d603338c1286ede0db8896b750",
        "gas": "0xfcc3d",
        "value": "0x0",
        "input": "0x21c0cde5000000000000000000000000474bf58a182cbf6134459e635b914c6350c71a68e200e502afcbbbda1d0ed85ea87fee114ab47ecd5f208563db7da403fda077650000000000000000000000000000000000000000000000000000000000000000",
        "nonce": "0x16",
        "chainId": "0x279f"
      },
      "additionalContracts": [],
      "isFixedGasLimit": false
    },
    {
      "hash": "0xd3216e7934cbec225fb0cb2b4777725ec839528f8099c1ba478a4fc8a1ef4312",
      "transactionType": "CALL",
      "contractName": null,
      "contractAddress": "0x3e7cafacb09814d603338c1286ede0db8896b750",
      "function": "register(address,bytes32,uint8)",
      "arguments": [
        "0x7aDb9C810b69b13ddeAAd348EB54c86aE8B8289f",
        "0xec1c8aaa562eb01c84bd16ad44bd8cf2204febb1745f2b47783152470d818a0e",
        "1"
      ],
      "transaction": {
        "from": "0x2daf660754b1102d90867f15ef9761997f56839c",
        "to": "0x3e7cafacb09814d603338c1286ede0db8896b750",
        "gas": "0x10651b",
        "value": "0x0",
        "input": "0x21c0cde50000000000000000000000007adb9c810b69b13ddeaad348eb54c86ae8b8289fec1c8aaa562eb01c84bd16ad44bd8cf2204febb1745f2b47783152470d818a0e0000000000000000000000000000000000000000000000000000000000000001",
        "nonce": "0x17",
        "chainId": "0x279f"
      },
      "additionalContracts": [],
      "isFixedGasLimit": false
    },
    {
      "hash": "0xd747b540a2bb06c821a11df63a4a97352144576edd6654cfc095a7d7aac40bc9",
      "transactionType": "CALL",
      "contractName": null,
      "contractAddress": "0x3e7cafacb09814d603338c1286ede0db8896b750",
      "function": "register(address,bytes32,uint8)",
      "arguments": [
        "0x999dcE7c1333207885dfe452F02D0e00f6468b79",
        "0x676c88ad9e88b42a90a8469d7fdcf41a632ec6bcbaee93b3bd943c250e5b480f",
        "2"
      ],
      "transaction": {
        "from": "0x2daf660754b1102d90867f15ef9761997f56839c",
        "to": "0x3e7cafacb09814d603338c1286ede0db8896b750",
        "gas": "0xf79f7",
        "value": "0x0",
        "input": "0x21c0cde5000000000000000000000000999dce7c1333207885dfe452f02d0e00f6468b79676c88ad9e88b42a90a8469d7fdcf41a632ec6bcbaee93b3bd943c250e5b480f0000000000000000000000000000000000000000000000000000000000000002",
        "nonce": "0x18",
        "chainId": "0x279f"
      },
      "additionalContracts": [],
      "isFixedGasLimit": false
    },
    {
      "hash": "0xb583e8c8911c3d94efd3b63f6730a169b43465b5a680b11109c7f072a9393eec",
      "transactionType": "CALL",
      "contractName": null,
      "contractAddress": "0x3e7cafacb09814d603338c1286ede0db8896b750",
      "function": "register(address,bytes32,uint8)",
      "arguments": [
        "0xe526be34b0c14A74E7EcD03aBbFd368539ec6Fb1",
        "0x1859859b5f04912d46423cf91cd6cf76cbaad65b9bb75492d9a9b5d35a16f050",
        "3"
      ],
      "transaction": {
        "from": "0x2daf660754b1102d90867f15ef9761997f56839c",
        "to": "0x3e7cafacb09814d603338c1286ede0db8896b750",
        "gas": "0x106455",
        "value": "0x0",
        "input": "0x21c0cde5000000000000000000000000e526be34b0c14a74e7ecd03abbfd368539ec6fb11859859b5f04912d46423cf91cd6cf76cbaad65b9bb75492d9a9b5d35a16f0500000000000000000000000000000000000000000000000000000000000000003",
        "nonce": "0x19",
        "chainId": "0x279f"
      },
      "additionalContracts": [],
      "isFixedGasLimit": false
    },
    {
      "hash": "0x2285155947dc4883449bbb89c93517b56e096079ee16e11733536d7a13d8b4c8",
      "transactionType": "CALL",
      "contractName": null,
      "contractAddress": "0x3e7cafacb09814d603338c1286ede0db8896b750",
      "function": "register(address,bytes32,uint8)",
      "arguments": [
        "0x7dEFF468E02Dcc818AC7f1E877C36BCbD143a078",
        "0xc4c5852af31b2793dccecd1b58ef7849a0f766fd59c8f0288dab3316c5092322",
        "4"
      ],
      "transaction": {
        "from": "0x2daf660754b1102d90867f15ef9761997f56839c",
        "to": "0x3e7cafacb09814d603338c1286ede0db8896b750",
        "gas": "0x106455",
        "value": "0x0",
        "input": "0x21c0cde50000000000000000000000007deff468e02dcc818ac7f1e877c36bcbd143a078c4c5852af31b2793dccecd1b58ef7849a0f766fd59c8f0288dab3316c50923220000000000000000000000000000000000000000000000000000000000000004",
        "nonce": "0x1a",
        "chainId": "0x279f"
      },
      "additionalContracts": [],
      "isFixedGasLimit": false
    }
  ],
  "receipts": [],
  "libraries": [],
  "pending": [],
  "returns": {},
  "timestamp": 1770557068248,
  "chain": 10143,
  "commit": null
}